{
    "abi": [
        {
            "type": "function",
            "name": "completeGoal",
            "inputs": [
                {
                    "name": "id",
                    "type": "uint256",
                    "internalType": "uint256"
                },
                {
                    "name": "isCompleted",
                    "type": "bool",
                    "internalType": "bool"
                }
            ],
            "outputs": [],
            "stateMutability": "nonpayable"
        },
        {
            "type": "function",
            "name": "createGoal",
            "inputs": [
                {
                    "name": "deadline",
                    "type": "uint256",
                    "internalType": "uint256"
                },
                {
                    "name": "supporters",
                    "type": "address[]",
                    "internalType": "address[]"
                }
            ],
            "outputs": [
                {
                    "name": "",
                    "type": "uint256",
                    "internalType": "uint256"
                }
            ],
            "stateMutability": "payable"
        },
        {
            "type": "function",
            "name": "getGoals",
            "inputs": [],
            "outputs": [
                {
                    "name": "",
                    "type": "tuple[]",
                    "internalType": "struct Accountable.Goal[]",
                    "components": [
                        {
                            "name": "id",
                            "type": "uint256",
                            "internalType": "uint256"
                        },
                        {
                            "name": "deadline",
                            "type": "uint256",
                            "internalType": "uint256"
                        },
                        {
                            "name": "stakeAmount",
                            "type": "uint256",
                            "internalType": "uint256"
                        },
                        {
                            "name": "supporters",
                            "type": "address[]",
                            "internalType": "address[]"
                        },
                        {
                            "name": "isCompleted",
                            "type": "bool",
                            "internalType": "bool"
                        }
                    ]
                }
            ],
            "stateMutability": "view"
        },
        {
            "type": "function",
            "name": "goalCount",
            "inputs": [
                {
                    "name": "",
                    "type": "address",
                    "internalType": "address"
                }
            ],
            "outputs": [
                {
                    "name": "",
                    "type": "uint256",
                    "internalType": "uint256"
                }
            ],
            "stateMutability": "view"
        },
        {
            "type": "function",
            "name": "goals",
            "inputs": [
                {
                    "name": "",
                    "type": "address",
                    "internalType": "address"
                },
                {
                    "name": "",
                    "type": "uint256",
                    "internalType": "uint256"
                }
            ],
            "outputs": [
                {
                    "name": "id",
                    "type": "uint256",
                    "internalType": "uint256"
                },
                {
                    "name": "deadline",
                    "type": "uint256",
                    "internalType": "uint256"
                },
                {
                    "name": "stakeAmount",
                    "type": "uint256",
                    "internalType": "uint256"
                },
                {
                    "name": "isCompleted",
                    "type": "bool",
                    "internalType": "bool"
                }
            ],
            "stateMutability": "view"
        }
    ],
    "bytecode": {
        "object": "0x6080604052348015600e575f5ffd5b5061074e8061001c5f395ff3fe608060405260043610610049575f3560e01c806320cbaddd1461004d5780639e656d6914610073578063c403c2ae14610094578063cfa40d6614610101578063f68bf7db1461012c575b5f5ffd5b61006061005b3660046104b3565b610175565b6040519081526020015b60405180910390f35b34801561007e575f5ffd5b50610087610292565b60405161006a919061058a565b34801561009f575f5ffd5b506100df6100ae366004610666565b5f60208181529281526040808220909352908152208054600182015460028301546004909301549192909160ff1684565b604080519485526020850193909352918301521515606082015260800161006a565b34801561010c575f5ffd5b5061006061011b36600461068e565b60016020525f908152604090205481565b348015610137575f5ffd5b506101736101463660046106ae565b335f9081526020818152604080832094835293905291909120600401805460ff1916911515919091179055565b005b5f5f34116101d55760405162461bcd60e51b815260206004820152602360248201527f5374616b6520616d6f756e74206d75737420626520677265617465722074686160448201526206e20360ec1b606482015260840160405180910390fd5b335f81815260016020818152604080842054815160a0810183528181528084018a815234828501908152606083018b81526080840189905298885287865284882084895286529390962081518155955194860194909455905160028501559351805192938493909261024e92600385019291019061040d565b50608091909101516004909101805460ff1916911515919091179055335f908152600160205260408120805491610284836106e0565b909155509195945050505050565b335f908152600160205260408120546060919067ffffffffffffffff8111156102bd576102bd610484565b60405190808252806020026020018201604052801561031e57816020015b61030b6040518060a001604052805f81526020015f81526020015f8152602001606081526020015f151581525090565b8152602001906001900390816102db5790505b5090505f5b335f9081526001602052604090205481101561040757335f90815260208181526040808320848452825291829020825160a0810184528154815260018201548184015260028201548185015260038201805485518186028101860190965280865291949293606086019392908301828280156103c657602002820191905f5260205f20905b81546001600160a01b031681526001909101906020018083116103a8575b50505091835250506004919091015460ff16151560209091015282518390839081106103f4576103f4610704565b6020908102919091010152600101610323565b50919050565b828054828255905f5260205f20908101928215610460579160200282015b8281111561046057825182546001600160a01b0319166001600160a01b0390911617825560209092019160019091019061042b565b5061046c929150610470565b5090565b5b8082111561046c575f8155600101610471565b634e487b7160e01b5f52604160045260245ffd5b80356001600160a01b03811681146104ae575f5ffd5b919050565b5f5f604083850312156104c4575f5ffd5b82359150602083013567ffffffffffffffff8111156104e1575f5ffd5b8301601f810185136104f1575f5ffd5b803567ffffffffffffffff81111561050b5761050b610484565b8060051b604051601f19603f830116810181811067ffffffffffffffff8211171561053857610538610484565b604052918252602081840181019290810188841115610555575f5ffd5b6020850194505b8385101561057b5761056d85610498565b81526020948501940161055c565b50809450505050509250929050565b5f602082016020835280845180835260408501915060408160051b8601019250602086015f5b8281101561065a57603f19878603018452815160a08601815187526020820151602088015260408201516040880152606082015160a0606089015281815180845260c08a0191506020830193505f92505b8083101561062c5783516001600160a01b031682526020938401936001939093019290910190610601565b506080840151935061064260808a018515159052565b975050506020948501949290920191506001016105b0565b50929695505050505050565b5f5f60408385031215610677575f5ffd5b61068083610498565b946020939093013593505050565b5f6020828403121561069e575f5ffd5b6106a782610498565b9392505050565b5f5f604083850312156106bf575f5ffd5b82359150602083013580151581146106d5575f5ffd5b809150509250929050565b5f600182016106fd57634e487b7160e01b5f52601160045260245ffd5b5060010190565b634e487b7160e01b5f52603260045260245ffdfea26469706673582212201b690ac80794fa64de58667b39c1e2a586b070c6d756ec30d00f7ff0efc89bbe64736f6c634300081c0033",
        "linkReferences": {}
    },
    "methodIdentifiers": {
        "completeGoal(uint256,bool)": "f68bf7db",
        "createGoal(uint256,address[])": "20cbaddd",
        "getGoals()": "9e656d69",
        "goalCount(address)": "cfa40d66",
        "goals(address,uint256)": "c403c2ae"
    },
    "id": 0
}