{"abi":[{"type":"function","name":"completeGoal","inputs":[{"name":"id","type":"string","internalType":"string"},{"name":"isCompleted","type":"bool","internalType":"bool"}],"outputs":[],"stateMutability":"nonpayable"},{"type":"function","name":"createGoal","inputs":[{"name":"id","type":"string","internalType":"string"},{"name":"deadline","type":"uint256","internalType":"uint256"},{"name":"supporters","type":"address[]","internalType":"address[]"}],"outputs":[],"stateMutability":"payable"},{"type":"function","name":"getGoal","inputs":[{"name":"id","type":"string","internalType":"string"},{"name":"userAddress","type":"address","internalType":"address"}],"outputs":[{"name":"","type":"tuple","internalType":"struct Accountable.Goal","components":[{"name":"id","type":"string","internalType":"string"},{"name":"deadline","type":"uint256","internalType":"uint256"},{"name":"stakeAmount","type":"uint256","internalType":"uint256"},{"name":"supporters","type":"address[]","internalType":"address[]"},{"name":"isCompleted","type":"bool","internalType":"bool"}]}],"stateMutability":"view"},{"type":"function","name":"goalCount","inputs":[{"name":"","type":"address","internalType":"address"}],"outputs":[{"name":"","type":"uint256","internalType":"uint256"}],"stateMutability":"view"},{"type":"function","name":"goals","inputs":[{"name":"","type":"address","internalType":"address"},{"name":"","type":"string","internalType":"string"}],"outputs":[{"name":"id","type":"string","internalType":"string"},{"name":"deadline","type":"uint256","internalType":"uint256"},{"name":"stakeAmount","type":"uint256","internalType":"uint256"},{"name":"isCompleted","type":"bool","internalType":"bool"}],"stateMutability":"view"}],"bytecode":{"object":"0x6080604052348015600e575f5ffd5b50610abf8061001c5f395ff3fe608060405260043610610049575f3560e01c80633f2dbef91461004d57806361ce0e90146100625780637f23fcbc14610081578063cfa40d66146100b6578063e6f0609e146100ef575b5f5ffd5b61006061005b366004610629565b61011e565b005b34801561006d575f5ffd5b5061006061007c36600461070d565b61024c565b34801561008c575f5ffd5b506100a061009b366004610760565b610290565b6040516100ad91906107d9565b60405180910390f35b3480156100c1575f5ffd5b506100e16100d0366004610875565b60016020525f908152604090205481565b6040519081526020016100ad565b3480156100fa575f5ffd5b5061010e610109366004610895565b61041b565b6040516100ad94939291906108e0565b5f341161017d5760405162461bcd60e51b815260206004820152602360248201527f5374616b6520616d6f756e74206d75737420626520677265617465722074686160448201526206e20360ec1b606482015260840160405180910390fd5b6040805160a08101825284815260208082018590523482840152606082018490525f60808301819052338152908190528290209151909182916101c1908790610910565b908152604051908190036020019020815181906101de90826109aa565b506020828101516001830155604083015160028301556060830151805161020b92600385019201906104e6565b50608091909101516004909101805460ff1916911515919091179055335f90815260016020526040812080549161024183610a65565b919050555050505050565b335f908152602081905260408082209051610268908590610910565b908152604051908190036020019020600401805492151560ff19909316929092179091555050565b6102c16040518060a00160405280606081526020015f81526020015f8152602001606081526020015f151581525090565b6001600160a01b0382165f908152602081905260409081902090516102e7908590610910565b90815260200160405180910390206040518060a00160405290815f8201805461030f90610926565b80601f016020809104026020016040519081016040528092919081815260200182805461033b90610926565b80156103865780601f1061035d57610100808354040283529160200191610386565b820191905f5260205f20905b81548152906001019060200180831161036957829003601f168201915b505050505081526020016001820154815260200160028201548152602001600382018054806020026020016040519081016040528092919081815260200182805480156103fa57602002820191905f5260205f20905b81546001600160a01b031681526001909101906020018083116103dc575b50505091835250506004919091015460ff1615156020909101529392505050565b5f602081815292815260409020815180830184018051928152908401929093019190912091528054819061044e90610926565b80601f016020809104026020016040519081016040528092919081815260200182805461047a90610926565b80156104c55780601f1061049c576101008083540402835291602001916104c5565b820191905f5260205f20905b8154815290600101906020018083116104a857829003601f168201915b50505050600183015460028401546004909401549293909290915060ff1684565b828054828255905f5260205f20908101928215610539579160200282015b8281111561053957825182546001600160a01b0319166001600160a01b03909116178255602090920191600190910190610504565b50610545929150610549565b5090565b5b80821115610545575f815560010161054a565b634e487b7160e01b5f52604160045260245ffd5b604051601f8201601f1916810167ffffffffffffffff8111828210171561059a5761059a61055d565b604052919050565b5f82601f8301126105b1575f5ffd5b813567ffffffffffffffff8111156105cb576105cb61055d565b6105de601f8201601f1916602001610571565b8181528460208386010111156105f2575f5ffd5b816020850160208301375f918101602001919091529392505050565b80356001600160a01b0381168114610624575f5ffd5b919050565b5f5f5f6060848603121561063b575f5ffd5b833567ffffffffffffffff811115610651575f5ffd5b61065d868287016105a2565b93505060208401359150604084013567ffffffffffffffff811115610680575f5ffd5b8401601f81018613610690575f5ffd5b803567ffffffffffffffff8111156106aa576106aa61055d565b8060051b6106ba60208201610571565b918252602081840181019290810190898411156106d5575f5ffd5b6020850194505b838510156106fe576106ed8561060e565b8252602094850194909101906106dc565b80955050505050509250925092565b5f5f6040838503121561071e575f5ffd5b823567ffffffffffffffff811115610734575f5ffd5b610740858286016105a2565b92505060208301358015158114610755575f5ffd5b809150509250929050565b5f5f60408385031215610771575f5ffd5b823567ffffffffffffffff811115610787575f5ffd5b610793858286016105a2565b9250506107a26020840161060e565b90509250929050565b5f81518084528060208401602086015e5f602082860101526020601f19601f83011685010191505092915050565b602081525f825160a060208401526107f460c08401826107ab565b905060208401516040840152604084015160608401526060840151601f198483030160808501528181518084526020840191506020830193505f92505b8083101561085c5783516001600160a01b031682526020938401936001939093019290910190610831565b50608086015180151560a0870152925095945050505050565b5f60208284031215610885575f5ffd5b61088e8261060e565b9392505050565b5f5f604083850312156108a6575f5ffd5b6108af8361060e565b9150602083013567ffffffffffffffff8111156108ca575f5ffd5b6108d6858286016105a2565b9150509250929050565b608081525f6108f260808301876107ab565b60208301959095525060408101929092521515606090910152919050565b5f82518060208501845e5f920191825250919050565b600181811c9082168061093a57607f821691505b60208210810361095857634e487b7160e01b5f52602260045260245ffd5b50919050565b601f8211156109a557805f5260205f20601f840160051c810160208510156109835750805b601f840160051c820191505b818110156109a2575f815560010161098f565b50505b505050565b815167ffffffffffffffff8111156109c4576109c461055d565b6109d8816109d28454610926565b8461095e565b6020601f821160018114610a0a575f83156109f35750848201515b5f19600385901b1c1916600184901b1784556109a2565b5f84815260208120601f198516915b82811015610a395787850151825560209485019460019092019101610a19565b5084821015610a5657868401515f19600387901b60f8161c191681555b50505050600190811b01905550565b5f60018201610a8257634e487b7160e01b5f52601160045260245ffd5b506001019056fea2646970667358221220439f4e2ffb0ce828db5f6a443474e63376b5ddfef1ef6807c53ad7684d8026f764736f6c634300081c0033","linkReferences":{}},"methodIdentifiers":{"completeGoal(string,bool)":"61ce0e90","createGoal(string,uint256,address[])":"3f2dbef9","getGoal(string,address)":"7f23fcbc","goalCount(address)":"cfa40d66","goals(address,string)":"e6f0609e"},"id":0}