{
    "abi": [
        {
            "type": "function",
            "name": "OWNER1",
            "inputs": [],
            "outputs": [
                {
                    "name": "",
                    "type": "address",
                    "internalType": "address"
                }
            ],
            "stateMutability": "view"
        },
        {
            "type": "function",
            "name": "OWNER2",
            "inputs": [],
            "outputs": [
                {
                    "name": "",
                    "type": "address",
                    "internalType": "address"
                }
            ],
            "stateMutability": "view"
        },
        {
            "type": "function",
            "name": "OWNER3",
            "inputs": [],
            "outputs": [
                {
                    "name": "",
                    "type": "address",
                    "internalType": "address"
                }
            ],
            "stateMutability": "view"
        },
        {
            "type": "function",
            "name": "completeGoal",
            "inputs": [
                {
                    "name": "id",
                    "type": "string",
                    "internalType": "string"
                },
                {
                    "name": "isCompleted",
                    "type": "bool",
                    "internalType": "bool"
                },
                {
                    "name": "amountPerSupporter",
                    "type": "uint256",
                    "internalType": "uint256"
                }
            ],
            "outputs": [],
            "stateMutability": "nonpayable"
        },
        {
            "type": "function",
            "name": "createGoal",
            "inputs": [
                {
                    "name": "id",
                    "type": "string",
                    "internalType": "string"
                },
                {
                    "name": "deadline",
                    "type": "uint256",
                    "internalType": "uint256"
                },
                {
                    "name": "supporters",
                    "type": "address[]",
                    "internalType": "address[]"
                }
            ],
            "outputs": [],
            "stateMutability": "payable"
        },
        {
            "type": "function",
            "name": "getGoal",
            "inputs": [
                {
                    "name": "id",
                    "type": "string",
                    "internalType": "string"
                },
                {
                    "name": "userAddress",
                    "type": "address",
                    "internalType": "address"
                }
            ],
            "outputs": [
                {
                    "name": "",
                    "type": "tuple",
                    "internalType": "struct Accountable.Goal",
                    "components": [
                        {
                            "name": "id",
                            "type": "string",
                            "internalType": "string"
                        },
                        {
                            "name": "deadline",
                            "type": "uint256",
                            "internalType": "uint256"
                        },
                        {
                            "name": "stakeAmount",
                            "type": "uint256",
                            "internalType": "uint256"
                        },
                        {
                            "name": "owner",
                            "type": "address",
                            "internalType": "address"
                        },
                        {
                            "name": "supporters",
                            "type": "address[]",
                            "internalType": "address[]"
                        },
                        {
                            "name": "isCompleted",
                            "type": "bool",
                            "internalType": "bool"
                        }
                    ]
                }
            ],
            "stateMutability": "view"
        },
        {
            "type": "function",
            "name": "goalCount",
            "inputs": [
                {
                    "name": "",
                    "type": "address",
                    "internalType": "address"
                }
            ],
            "outputs": [
                {
                    "name": "",
                    "type": "uint256",
                    "internalType": "uint256"
                }
            ],
            "stateMutability": "view"
        },
        {
            "type": "function",
            "name": "goals",
            "inputs": [
                {
                    "name": "",
                    "type": "address",
                    "internalType": "address"
                },
                {
                    "name": "",
                    "type": "string",
                    "internalType": "string"
                }
            ],
            "outputs": [
                {
                    "name": "id",
                    "type": "string",
                    "internalType": "string"
                },
                {
                    "name": "deadline",
                    "type": "uint256",
                    "internalType": "uint256"
                },
                {
                    "name": "stakeAmount",
                    "type": "uint256",
                    "internalType": "uint256"
                },
                {
                    "name": "owner",
                    "type": "address",
                    "internalType": "address"
                },
                {
                    "name": "isCompleted",
                    "type": "bool",
                    "internalType": "bool"
                }
            ],
            "stateMutability": "view"
        },
        {
            "type": "function",
            "name": "returnFunds",
            "inputs": [
                {
                    "name": "userAddress",
                    "type": "address",
                    "internalType": "address"
                },
                {
                    "name": "amount",
                    "type": "uint256",
                    "internalType": "uint256"
                }
            ],
            "outputs": [],
            "stateMutability": "nonpayable"
        }
    ],
    "bytecode": {
        "object": "0x6080604052348015600e575f5ffd5b506111fc8061001c5f395ff3fe608060405260043610610084575f3560e01c80637f23fcbc116100575780637f23fcbc14610127578063842b212e1461015357806390d9b8041461017a578063cfa40d6614610199578063e6f0609e146101d2575f5ffd5b80632eb9357e146100885780632ff46942146100cc5780633489b2c0146100ed5780633f2dbef914610114575b5f5ffd5b348015610093575f5ffd5b506100af7392d37148012968973aad071410a40551154157ef81565b6040516001600160a01b0390911681526020015b60405180910390f35b3480156100d7575f5ffd5b506100eb6100e6366004610ca2565b610202565b005b3480156100f8575f5ffd5b506100af732acdf6a2f893687ccd341a1ad7e27102b665d8c481565b6100eb610122366004610d17565b61050f565b348015610132575f5ffd5b50610146610141366004610dfb565b610667565b6040516100c39190610e74565b34801561015e575f5ffd5b506100af73e74752a6ea829bf0f47d8833f5c0f9030ab2155381565b348015610185575f5ffd5b506100eb610194366004610f22565b61082f565b3480156101a4575f5ffd5b506101c46101b3366004610f4a565b60016020525f908152604090205481565b6040519081526020016100c3565b3480156101dd575f5ffd5b506101f16101ec366004610f6a565b6109c6565b6040516100c3959493929190610fb5565b335f90815260208190526040808220905185929190610222908490610ff6565b90815260200160405180910390206040518060c00160405290815f8201805461024a9061100c565b80601f01602080910402602001604051908101604052809291908181526020018280546102769061100c565b80156102c15780601f10610298576101008083540402835291602001916102c1565b820191905f5260205f20905b8154815290600101906020018083116102a457829003601f168201915b505050505081526020016001820154815260200160028201548152602001600382015f9054906101000a90046001600160a01b03166001600160a01b03166001600160a01b031681526020016004820180548060200260200160405190810160405280929190818152602001828054801561036357602002820191905f5260205f20905b81546001600160a01b03168152600190910190602001808311610345575b50505091835250506005919091015460ff1615156020909101526080810151519091506103ab5760405162461bcd60e51b81526004016103a290611044565b60405180910390fd5b5f5b8160800151518110156104f057336001600160a01b0316826080015182815181106103da576103da611088565b60200260200101516001600160a01b0316036104e857335f90815260208190526040808220905161040c908990610ff6565b9081526040519081900360200190206005810180548815801560ff199092169190911790915590915061047c57600381015460028201546040516001600160a01b039092169181156108fc0291905f818181858888f19350505050158015610476573d5f5f3e3d5ffd5b506104e0565b6104e0816004018054806020026020016040519081016040528092919081815260200182805480156104d557602002820191905f5260205f20905b81546001600160a01b031681526001909101906020018083116104b7575b505050505086610aa2565b505050610509565b6001016103ad565b5060405162461bcd60e51b81526004016103a290611044565b50505050565b5f341161056a5760405162461bcd60e51b815260206004820152602360248201527f5374616b6520616d6f756e74206d75737420626520677265617465722074686160448201526206e20360ec1b60648201526084016103a2565b6040805160c081018252848152602080820185905234828401523360608301819052608083018590525f60a08401819052908152908190528290209151909182916105b6908790610ff6565b908152604051908190036020019020815181906105d390826110e7565b5060208281015160018301556040830151600283015560608301516003830180546001600160a01b0319166001600160a01b03909216919091179055608083015180516106269260048501920190610b7a565b5060a091909101516005909101805460ff1916911515919091179055335f90815260016020526040812080549161065c836111a2565b919050555050505050565b6106a76040518060c00160405280606081526020015f81526020015f81526020015f6001600160a01b03168152602001606081526020015f151581525090565b6001600160a01b0382165f908152602081905260409081902090516106cd908590610ff6565b90815260200160405180910390206040518060c00160405290815f820180546106f59061100c565b80601f01602080910402602001604051908101604052809291908181526020018280546107219061100c565b801561076c5780601f106107435761010080835404028352916020019161076c565b820191905f5260205f20905b81548152906001019060200180831161074f57829003601f168201915b505050505081526020016001820154815260200160028201548152602001600382015f9054906101000a90046001600160a01b03166001600160a01b03166001600160a01b031681526020016004820180548060200260200160405190810160405280929190818152602001828054801561080e57602002820191905f5260205f20905b81546001600160a01b031681526001909101906020018083116107f0575b50505091835250506005919091015460ff1615156020909101529392505050565b5f811161087e5760405162461bcd60e51b815260206004820152601d60248201527f416d6f756e74206d7573742062652067726561746572207468616e203000000060448201526064016103a2565b6001600160a01b0382166108d45760405162461bcd60e51b815260206004820152601860248201527f5573657220616464726573732063616e6e6f742062652030000000000000000060448201526064016103a2565b336001600160a01b038316036109425760405162461bcd60e51b815260206004820152602d60248201527f5573657220616464726573732063616e6e6f74206265207468652073616d652060448201526c30b9903a34329031b0b63632b960991b60648201526084016103a2565b61094b33610b05565b61098e5760405162461bcd60e51b81526020600482015260146024820152732ab9b2b91034b9903737ba1030b71037bbb732b960611b60448201526064016103a2565b6040516001600160a01b0383169082156108fc029083905f818181858888f193505050501580156109c1573d5f5f3e3d5ffd5b505050565b5f60208181529281526040902081518083018401805192815290840192909301919091209152805481906109f99061100c565b80601f0160208091040260200160405190810160405280929190818152602001828054610a259061100c565b8015610a705780601f10610a4757610100808354040283529160200191610a70565b820191905f5260205f20905b815481529060010190602001808311610a5357829003601f168201915b505050600184015460028501546003860154600590960154949591949093506001600160a01b03909116915060ff1685565b5f5b82518110156109c157828181518110610abf57610abf611088565b60200260200101516001600160a01b03166108fc8390811502906040515f60405180830381858888f19350505050158015610afc573d5f5f3e3d5ffd5b50600101610aa4565b5f6001600160a01b038216732acdf6a2f893687ccd341a1ad7e27102b665d8c41480610b4d57506001600160a01b03821673e74752a6ea829bf0f47d8833f5c0f9030ab21553145b80610b7457506001600160a01b0382167392d37148012968973aad071410a40551154157ef145b92915050565b828054828255905f5260205f20908101928215610bcd579160200282015b82811115610bcd57825182546001600160a01b0319166001600160a01b03909116178255602090920191600190910190610b98565b50610bd9929150610bdd565b5090565b5b80821115610bd9575f8155600101610bde565b634e487b7160e01b5f52604160045260245ffd5b604051601f8201601f1916810167ffffffffffffffff81118282101715610c2e57610c2e610bf1565b604052919050565b5f82601f830112610c45575f5ffd5b813567ffffffffffffffff811115610c5f57610c5f610bf1565b610c72601f8201601f1916602001610c05565b818152846020838601011115610c86575f5ffd5b816020850160208301375f918101602001919091529392505050565b5f5f5f60608486031215610cb4575f5ffd5b833567ffffffffffffffff811115610cca575f5ffd5b610cd686828701610c36565b93505060208401358015158114610ceb575f5ffd5b929592945050506040919091013590565b80356001600160a01b0381168114610d12575f5ffd5b919050565b5f5f5f60608486031215610d29575f5ffd5b833567ffffffffffffffff811115610d3f575f5ffd5b610d4b86828701610c36565b93505060208401359150604084013567ffffffffffffffff811115610d6e575f5ffd5b8401601f81018613610d7e575f5ffd5b803567ffffffffffffffff811115610d9857610d98610bf1565b8060051b610da860208201610c05565b91825260208184018101929081019089841115610dc3575f5ffd5b6020850194505b83851015610dec57610ddb85610cfc565b825260209485019490910190610dca565b80955050505050509250925092565b5f5f60408385031215610e0c575f5ffd5b823567ffffffffffffffff811115610e22575f5ffd5b610e2e85828601610c36565b925050610e3d60208401610cfc565b90509250929050565b5f81518084528060208401602086015e5f602082860101526020601f19601f83011685010191505092915050565b602081525f825160c06020840152610e8f60e0840182610e46565b9050602084015160408401526040840151606084015260018060a01b0360608501511660808401526080840151601f198483030160a08501528181518084526020840191506020830193505f92505b80831015610f095783516001600160a01b031682526020938401936001939093019290910190610ede565b5060a086015180151560c0870152925095945050505050565b5f5f60408385031215610f33575f5ffd5b610f3c83610cfc565b946020939093013593505050565b5f60208284031215610f5a575f5ffd5b610f6382610cfc565b9392505050565b5f5f60408385031215610f7b575f5ffd5b610f8483610cfc565b9150602083013567ffffffffffffffff811115610f9f575f5ffd5b610fab85828601610c36565b9150509250929050565b60a081525f610fc760a0830188610e46565b60208301969096525060408101939093526001600160a01b039190911660608301521515608090910152919050565b5f82518060208501845e5f920191825250919050565b600181811c9082168061102057607f821691505b60208210810361103e57634e487b7160e01b5f52602260045260245ffd5b50919050565b60208082526024908201527f596f7520617265206e6f74206120737570706f72746572206f6620746869732060408201526319dbd85b60e21b606082015260800190565b634e487b7160e01b5f52603260045260245ffd5b601f8211156109c157805f5260205f20601f840160051c810160208510156110c15750805b601f840160051c820191505b818110156110e0575f81556001016110cd565b5050505050565b815167ffffffffffffffff81111561110157611101610bf1565b6111158161110f845461100c565b8461109c565b6020601f821160018114611147575f83156111305750848201515b5f19600385901b1c1916600184901b1784556110e0565b5f84815260208120601f198516915b828110156111765787850151825560209485019460019092019101611156565b508482101561119357868401515f19600387901b60f8161c191681555b50505050600190811b01905550565b5f600182016111bf57634e487b7160e01b5f52601160045260245ffd5b506001019056fea2646970667358221220f1e29e0fe40436dea073d310f29008f916defb73de72e66c267fdfacac81b51e64736f6c634300081c0033",
        "linkReferences": {}
    },
    "methodIdentifiers": {
        "OWNER1()": "3489b2c0",
        "OWNER2()": "842b212e",
        "OWNER3()": "2eb9357e",
        "completeGoal(string,bool,uint256)": "2ff46942",
        "createGoal(string,uint256,address[])": "3f2dbef9",
        "getGoal(string,address)": "7f23fcbc",
        "goalCount(address)": "cfa40d66",
        "goals(address,string)": "e6f0609e",
        "returnFunds(address,uint256)": "90d9b804"
    },
    "id": 0
}